:020000040000FA
:100000000C9471020C94A2020C94A2020C94A20211
:100010000C94A2020C94A2020C94A2020C94A202D0
:100020000C94A2020C94A2020C94A2020C94C41789
:100030000C94A2020C94A2020C94A2020C94A202B0
:100040000C94A2020C9496170C94A2020C94A20297
:100050000C94A2020C94A2020C94A2020C94C2165C
:100060000C94A2020C948C160C9462160C94A202AE
:100070000C94A2020C94A2020C94A2020C94A20270
:100080000C9468170C94A2020C94A2020C94A20285
:100090000C942C160C9402160C94A2020C94A2023E
:1000A0000C94A2020C94A2020C943A170C94A20293
:1000B0000C94A2020C94A2020C94A2020C940C17B1
:1000C0000C94A2020C94A2020C94A2020C94A20220
:1000D0000C94A2020C94A2020C94A2020C94A20210
:1000E0000C94A2020C94EC0B0C94F8150C943305B0
:1000F0000C94CD030C942F050C942B070C94810BBE
:100100000C94B80B0C945A0A0C9425050C948B0D86
:100110000C9423070C949F100C94D0080C947C0929
:100120000C94F8040C944E0C0C943D050C94E70EC2
:100130000C94EF0B0C949E0F0C9436120C94350912
:100140000C94F0030C942B050C94580A0C9417058E
:100150000C94A0030C94420D0C9428070C94E60B0D
:100160000C94800A0C94D3080C94C70D0C94D608F8
:100170000C943B120C9402050C94170F0C9421055F
:100180000C940D050C94B3100C94C9080C9439050B
:100190000C94450D0C94FE030C94040E0C94400436
:1001A0000C9413050C94BC080C94820A0C944B0C10
:1001B0000C94F20B0C94BF080C940A050C940605E1
:1001C0000C94E90B0C941D050C948D040C943F0DBC
:1001D0000C94DC030C942E070C947A180C94BA0B34
:1001E0000C94C2080C9427100C94830B0C94820975
:1001F0000C94480C0C947F090C9438050C9432072D
:100200000C94FE047374645F6D7367732F54696D8F
:1002100065006364373136366337346335353263AE
:1002200033313166626363326665356137626332EA
:10023000383900726F7373657269616C5F6D7367D3
:10024000732F546F706963496E666F003061643557
:100250003166383866633434383932663863313061
:1002600036383430373736343630303500726F73C5
:1002700073657269616C5F6D7367732F4C6F670094
:100280003131616264373331633235393333323679
:100290003163643631383362643132643632393531
:1002A00000726F7373657269616C5F6D7367732F32
:1002B00052657175657374506172616D0039663095
:1002C00065393862646136353938313938366464B5
:1002D0006635336166613761343065343900737473
:1002E000645F6D7367732F4D756C746941727261D1
:1002F0007944696D656E73696F6E00346364306351
:100300003833613836383364656165343065636429
:100310006163363065353362666138007374645FDB
:100320006D7367732F4D756C746941727261794C8E
:1003300061796F75740030666564326131316331A3
:10034000336531316335353731623465326139397E
:10035000356139316133007374645F6D7367732F76
:10036000426F6F6C003862393463316235336462D6
:1003700036316662366165643430363032386164F5
:1003800036333332610000002000230026002900AC
:100390002C002F00320000010000030106010901BA
:1003A0007374645F6D7367732F496E7431364D7566
:1003B0006C7469417272617900643933333864371F
:1003C0006635323366636236393266616539643068
:1003D0006130653966303637630000002100240043
:1003E00027002A002D003000330001010000040125
:1003F00007010A0100002200250028002B002E0022
:100400003100340002010000050108010B0105055F
:100410000505070508080808020202020A0A08087A
:1004200004040404010101010101010103030303A8
:1004300003030303040707070C0C0C0C0C0C0C0C37
:100440000202020206060606060606060B0B0B0B48
:100450000B0B0B0B0102102020080810204010206D
:100460004080020102010804020101020408102078
:100470004080804020100804020180040201804076
:1004800020100804020108040201010204081020DF
:100490004080010204081020408000000A0B02097D
:1004A0000C0D0E080703040100000000000000000E
:1004B000000000000000000000000000000000003C
:1004C00000000000000012111000000000000000F9
:1004D000000000000000000000000000000000001C
:1004E0007A1811241FBECFEFD1E2DEBFCDBF00E0EE
:1004F0000CBF16E0A0E0B2E0EEE2F1E400E00BBFDA
:1005000002C007900D92AC37B107D9F72FE0ACE7E6
:10051000B6E001C01D92AD3EB207E1F712E0C1E7BF
:10052000D2E000E006C021970109802FFE010E9461
:100530006A1EC037D10780E00807A9F70E94CB1ACE
:100540000C9495200C940000CF92DF92EF92FF92D2
:10055000CF93DF93EC016A017B01E889F98982E09E
:100560008083C11481EED806E104F104A1F060E0BB
:1005700079E08DE390E0A70196010E94DA1D2150F9
:100580003109410951095695479537952795211508
:1005900080E1380798F0E889F989108260E874E80A
:1005A0008EE190E0A70196010E94DA1D21503109E9
:1005B000410951095695479537952795EC85FD8555
:1005C0003083EE85FF852083188EEC89FD8986E0D7
:1005D0008083EA89FB89808180618083EA89FB8945
:1005E000808188608083EA89FB898081806880833C
:1005F000EA89FB8980818F7D8083DF91CF91FF9095
:10060000EF90DF90CF900895CF93DF93CDB7DEB713
:10061000D2500FB6F894DEBF0FBECDBFAC0180E064
:1006200092E0E2E4F2E0DE01119601900D92019772
:10063000E1F7ABE0B7E090E080E09D012B50374060
:100640002417350798F42D91782F6627E92FFF2777
:10065000E227EE0FFF1F81E090E08C0F9D1FE80F57
:10066000F91F8081918186279727E7CFDE5F0FB63C
:10067000F894DEBF0FBECDBFDF91CF910895E7E3C1
:10068000FFE030E020E041915191452B91F4F901D8
:10069000EE0FFF1FE95CF04F9183808323583F4F9B
:1006A000FC013683258323E23BE03087278381E00A
:1006B00008952F5F3F4F2931310529F780E00895D4
:1006C000E9E6FFE030E020E041915191452B71F4E3
:1006D000F901EE0FFF1FE759F04F918380832C59EA
:1006E0003F4FFC013383228381E008952F5F3F4F0A
:1006F0002931310549F780E00895CF93DF9300D089
:100700001F921F92CDB7DEB728ED34E03A832983DC
:1007100023E02B837D836C83DC01ED91FC910190C0
:10072000F081E02DAE014F5F5F4F67E070E01995FB
:100730000F900F900F900F900F90DF91CF91089531
:10074000AF92BF92CF92DF92EF92FF920F931F93DF
:10075000CF93DF936C017B018B01040F151FEB011D
:100760005E01AE18BF08C017D10759F06991D601D4
:10077000ED91FC910190F081E02DC6011995892B36
:1007800079F7C501DF91CF911F910F91FF90EF9005
:10079000DF90CF90BF90AF900895FC01538D448DB2
:1007A000252F30E0842F90E0821B930B541710F01C
:1007B000CF96089501970895FC01918D828D981729
:1007C00061F0A28DAE0FBF2FB11D5D968C91928D01
:1007D0009F5F9F73928F90E008958FEF9FEF089532
:1007E000FC01918D828D981731F0828DE80FF11DFB
:1007F000858D90E008958FEF9FEF0895FC01918D16
:10080000228D892F90E0805C9F4F821B91098F730E
:10081000992708958BE897E00E94FE0321E0892B39
:1008200009F420E0822F089588E298E00E94FE03F8
:1008300021E0892B09F420E0822F0895FC01A48D8A
:10084000A80FB92FB11DA35ABF4F2C91848D90E0F2
:1008500001968F739927848FA689B7892C93A089D5
:10086000B1898C91837080648C93938D848D98135F
:1008700006C00288F389E02D80818F7D80830895F2
:10088000EF92FF920F931F93CF93DF93EC0181E0E0
:10089000888F9B8D8C8D98131AC0E889F989808187
:1008A00085FF15C09FB7F894EE89FF896083E889BA
:1008B000F98980818370806480839FBF81E090E0AC
:1008C000DF91CF911F910F91FF90EF900895F62E39
:1008D0000B8D10E00F5F1F4F0F731127E02E8C8DD3
:1008E0008E110CC00FB607FCFACFE889F989808118
:1008F00085FFF5CFCE010E941E04F1CFEB8DEC0FEA
:10090000FD2FF11DE35AFF4FF0829FB7F8940B8F34
:10091000EA89FB8980818062CFCFCF93DF93EC019E
:10092000888D8823B9F0AA89BB89E889F9898C91D7
:1009300085FD03C0808186FD0DC00FB607FCF7CF93
:100940008C9185FFF2CF808185FFEDCFCE010E9493
:100950001E04E9CFDF91CF91089580E090E0892BCC
:1009600029F00E94140481110E94000080E090E0B0
:10097000892B29F00E940A0481110E94000080E066
:1009800090E0892B49F080E090E0892B29F00E94CB
:10099000000081110E94000080E090E0892B49F066
:1009A00080E090E0892B29F00E94000081110C94D6
:1009B000000008958150823108F05AC0E82FF0E01D
:1009C0008827EA51FB4F8F4F0C946A1E06050A05D3
:1009D000F804FE04020538050D05130517051D056D
:1009E000210525052B052F053805330539053D055E
:1009F000809180008F77809380000895809180009F
:100A00008F7DF9CF80918000877FF5CF84B58F7778
:100A100084BD089584B58F7DFBCF8091B0008F7722
:100A20008093B00008958091B0008F7DF9CF8091C0
:100A300090008F77809390000895809190008F7D33
:100A4000F9CF80919000877FF5CF8091A0008F77BC
:100A50008093A00008958091A0008F7DF9CF8091B0
:100A6000A000877FF5CF809120018F7780932001B0
:100A70000895809120018F7DF9CF80912001877F9B
:100A8000F5CF1F93CF93DF93282F30E0F901E6567F
:100A9000FB4F8491F901EC5AFB4FD491F901E25FCD
:100AA000FB4FC491CC23A9F0162F81110E94DA04C8
:100AB000EC2FF0E0EE0FFF1FEC50FC4FA591B4912E
:100AC0008FB7F894EC91111108C0D095DE23DC9318
:100AD0008FBFDF91CF911F910895DE2BF8CF0F9339
:100AE0001F93CF93DF939FEF90930B0790930C0787
:100AF0009DEF90930D0710920E0780930F0783E0F0
:100B0000860F80931007462F50E01092110783E064
:100B10008093120728E0495F5F4F822F90E08C019D
:100B2000055F184F4817590744F08D57994FFC013E
:100B30008081F80180832F5FF0CF685FC62FD0E0FF
:100B4000CE010E940403F8018083918361E08CE070
:100B50000E94410583E290E00197F1F710E02196B1
:100B6000812F90E0C817D90774F0855F984FFC017A
:100B700060818BE897E00E9440048BE897E00E9438
:100B80008D041F5FEDCF60E08CE00E94410583E2A1
:100B900090E00197F1F7DF91CF911F910F910895A8
:100BA000EBE8F6E090E490831182828363E08EEFBD
:100BB0000C946F05CF93C82F80E00E94D005EBE81E
:100BC000F6E08BE080831182C28363E08EEF0E94A7
:100BD0006F0581E0CF910C94D005CF93C82FCB0146
:100BE000BA0123EE35EA4BE850E40E94EA1C0E9469
:100BF0000B1EEBE8F6E080E780831182628373834B
:100C00001482158266E08C2FCF910C946F05CF93E0
:100C1000DF9390E0FC01EC5AFB4F2491825F9B4FE5
:100C2000FC0184918823D1F090E0880F991FFC018A
:100C3000E652FC4FA591B491FC01EC50FC4FC591DC
:100C4000D491623071F49FB7F8943C91822F8095D3
:100C500083238C93E8812E2B28839FBFDF91CF9134
:100C600008958FB7F894EC912E2B2C938FBFF6CF6D
:100C70003FB7F8948091870690918806A0918906E5
:100C8000B0918A0626B5A89B05C02F3F19F00196A2
:100C9000A11DB11D3FBFBA2FA92F982F8827BC01D6
:100CA000CD01620F711D811D911D42E0660F771FFE
:100CB000881F991F4A95D1F708952FB7F89460912E
:100CC00083067091840680918506909186062FBFD9
:100CD0000895AF92BF92CF92DF92EF92FF920F935F
:100CE0001F93CF93DF936B017A01EC01C258D94F68
:100CF00028813CE0389F8001399F100D1124A0907D
:100D00005509B12C27FF1FC0FB0111821082888179
:100D10008F5F888388819801280F311D87FD3A9560
:100D2000F6012A153B051CF488818C30C4F18081C2
:100D30009181049680349C4908F473C0F601808147
:100D40009181049670C088819801280F311D87FD1C
:100D50003A952A153B05DCF68881A801480F511DFC
:100D600087FD5A95FA01EE0FFF1FE40FF51FEB53B5
:100D7000F74F808186FFCBCF8881F801E80FF11D06
:100D800087FDFA95CF01EE0FFF1FE80FF91FEB5318
:100D9000F74F808160E08F730E944105B8CF80815A
:100DA00091812881A801420F511D27FD5A959A0172
:100DB000FA01EE0FFF1FE20FF31FEB53F74F2181F4
:100DC0003281820F931FF70191838083888198017C
:100DD000280F311D87FD3A95F901EE0FFF1FE20F35
:100DE000F31FEB53F74F808186FF22C08881080FE5
:100DF000111D87FD1A95F801EE0FFF1FE00FF11F7F
:100E0000EB53F74F808161E08F73DF91CF911F919A
:100E10000F91FF90EF90DF90CF90BF90AF900C9428
:100E2000410580E49CE9F701918380838FEF8883FB
:100E3000DF91CF911F910F91FF90EF90DF90CF90B6
:100E4000BF90AF9008958E579B4FFC01808108950D
:100E500089EB93E0089580EA93E00895FC0183A56F
:100E600094A50895AF92BF92CF92DF92EF92FF9236
:100E70000F931F93CF93DF93643671054CF0FC0101
:100E8000EE57FB4F2081C12CD12C222309F461C0E5
:100E9000DA016B01EC01BC01655E7D4FED91FC91C7
:100EA0000190F081E02DCA0119958C017E012CEE94
:100EB000E21A2DEFF20A2FEFD7012C93FE01EB5E21
:100EC000FD4F2EEF208331968083319690833196AB
:100ED000890F809580833196C0821696DC9245E01A
:100EE00050E030E020E0C80107964817590730F479
:100EF0006191260F311D4F5F5F4FF7CF085F1F4F86
:100F00008C0F9D1FFC01EC5EFD4F2095208301306E
:100F1000B2E01B07A8F468015701C5018E199F09AB
:100F200080179107B4F48A819B81F50161915F017B
:100F3000DC01ED91FC910190F081E02D1995EDCF50
:100F400060E275E0CE010E947D03CC24CA94DD24CA
:100F5000DA94C601DF91CF911F910F91FF90EF902E
:100F6000DF90CF90BF90AF9008950F931F93CF93D2
:100F7000DF9300D000D000D01F92CDB7DEB78C0138
:100F800084EB94E09A8389831B821C821D821E82DB
:100F90001F82188619861A86D801ED91FC9101905E
:100FA000F081E02DAE014F5F5F4F6AE070E0C80155
:100FB00019950E945D06F801608771878287938783
:100FC0002A960FB6F894DEBF0FBECDBFDF91CF914A
:100FD0001F910F910895CF92DF92EF92FF92DC0163
:100FE0001D921D921D921C921397FB0130E020E090
:100FF000419150E0022E02C0440F551F0A94E2F7BF
:10100000052E000C660B770BCD90DD90ED90FC90DB
:1010100013974C295D296E297F294D935D936D931C
:101020007C931397285F3F4F2032310509F7FF90DB
:10103000EF90DF90CF900895FC014083518312829E
:1010400013820895AF92BF92CF92DF92EF92FF92F8
:101050000F931F93CF93DF9380917D06882309F42C
:1010600080C080917C06882309F47BC080E00E94C8
:10107000D00583E00E94DA05C0E0D2E02EE8E22E3F
:1010800024E0F22E870169917991F801D1908F01C6
:10109000072E000C880B990B0E94AF1CAB01BC0102
:1010A0008D2D0E94ED05F2E0C431DF0761F78CE67B
:1010B00080938B0610928C068AE880938D0610929E
:1010C0008E0610928F061092900666E08EEF0E94B8
:1010D0006F0581E00E94D005C4E1D2E08AE7C82E06
:1010E00084E0D82E06E614E094E7A92E8991999120
:1010F000F601619171916F01861797073CF0F80135
:1011000060817181861797070CF4BC01F701B190DB
:101110007F01072E000C880B990B0E94AF1C20E06A
:1011200030E046E351E40E94EA1C0E940B1EA092AC
:101130008B0610928C0660938D0670938E0610922B
:101140008F061092900666E08B2D0E946F050E5F51
:101150001F4FF2E0C832DF0749F610927D06109269
:101160007C06DF91CF911F910F91FF90EF90DF9060
:10117000CF90BF90AF90089585E693E0089587E5FE
:1011800093E00895FB012081FC01228381E090E03F
:101190000895FC018281FB01808381E090E0089545
:1011A00086E393E008958CE193E008958F929F92F7
:1011B000AF92BF92CF92DF92EF92FF920F931F9365
:1011C000CF93DF93EC018B018A81FB0180838B81BC
:1011D00081838C8182838D818383D12CC12C812C4E
:1011E000912C540184E0E82EF12CD801AE0DBF1DE6
:1011F0004A815B816C817D8184169506A606B706BF
:10120000C0F48A899B898C0D9D1DFC012081318150
:10121000F90120813181BD01F9011995E80EF91E0E
:10122000FFEF8F1A9F0AAF0ABF0A8CE0C80ED11CCD
:10123000DCCF8C898C938D8911968C9311978E8934
:1012400012968C9312978F8913968C93C7010496EC
:10125000DF91CF911F910F91FF90EF90DF90CF9092
:10126000BF90AF909F908F900895CF92DF92EF92B2
:10127000FF920F931F93CF93DF93EC018B010296A4
:101280000E94D608F801E80FF91F2A8D20832B8DC4
:1012900021832C8D22832D8D238304969F0140E092
:1012A00050E0BA01CA8CDB8CEC8CFD8C4C155D05D2
:1012B0006E057F05C0F489010E1B1F0BA8A1B9A103
:1012C000A00FB11F1C9111960C91D90114961C937B
:1012D000149715960C9302964F5F5F4F6F4F7F4F99
:1012E0002E5F3F4FDFCFDF91CF911F910F91FF9086
:1012F000EF90DF90CF9008958BEF92E008958EED00
:1013000092E008954F925F926F927F928F929F9298
:10131000AF92BF92EF92FF920F931F93CF93DF9301
:1013200000D01F92CDB7DEB78C017B01CE010196B4
:101330000E94EB0789819A81AB81BC814C015D01E0
:1013400024E0820E911CA11CB11CA7014D5F5F4FD0
:10135000FA0124E030E02901712C612C4814590471
:101360006A047B0428F4618161932F5F3F4FF3CFC0
:10137000E80EF91EF7011382F80153834283F70147
:10138000448150E070E060E0F80144835583668357
:101390007783F7012581522BF801448355836683B7
:1013A0007783F7012681622BF80144835583668396
:1013B0007783F7012781722BF80144835583668375
:1013C0007783F701408550E070E060E0F8014087E6
:1013D000518762877387F7012185522BF801408777
:1013E000518762877387F7012285622BF801408756
:1013F000518762877387F7012385722BF801408735
:101400005187628773870C960F900F900F900F9003
:10141000DF91CF911F910F91FF90EF90BF90AF9010
:101420009F908F907F906F905F904F900895CF9393
:10143000DF93DC0116968D919C911797FB01169610
:101440004D915C91179714962D913C9115974539C4
:101450005105CCF46491240F351FE9016883169679
:101460002D913C91179731961496CD91DC9115975B
:10147000C20FD31F48812F5F3F4F17963C932E9387
:1014800016974111DCCF16962D913C91179725396F
:10149000310534F022E030E019963C932E931897F2
:1014A00014962D913C91820F931FDF91CF91089557
:1014B0000C94170A41110C94170ACB010895AB0143
:1014C000FC01A781B08565817681ED91FC91119732
:1014D0000190F081E02DCD011994E9E9F9E088E06F
:1014E00090E0A0E0B0E0828F938FA48FB58F88E268
:1014F00092E091A380A3BF018EE899E00C945F0A6B
:101500000C946D0A2F923F924F925F926F927F924E
:101510008F929F92AF92BF92CF92DF92EF92FF9203
:101520000F931F93CF93DF9300D01F92CDB7DEB7F9
:101530001C01FC01828D938DA48DB58D0897A105AA
:10154000B10509F0B4C088E292E09A838983A1EDE5
:10155000BFE0BC83AB8310E000E058E8C52ED12C7F
:1015600068E5E62E62E0F62E74EB472E512C612CD6
:10157000712CD1019096ED91FC91E00FF11FA081AB
:10158000B181E981FA81A193B193FA83E983A03211
:10159000F2E0BF07BCF5EB81FC8121814601821A94
:1015A000910827FD9394880C991C880C991C092C90
:1015B000000CAA08BB082281C701821B910927FDE4
:1015C00093959C01220F331F220F331F032E000C13
:1015D000440B550B281939094A095B09A53BB1058C
:1015E00014F0A4EBB0E0B7FF02C0B0E0A0E00E94AE
:1015F000D21DA30192010E94A81D820E931EA41E5B
:10160000B51ED401EB81FC814081403368F5218116
:10161000B601621B710927FD7395660F771F660F70
:10162000771FA617B70774F02281B701621B7109F3
:1016300027FD7395660F771F660F771FA617B707ED
:101640000CF4BD01CB010297880F991F6FB7F89476
:1016500050E09A01220F331F240F351FF901EB537D
:10166000F74F928381836FBF0E5F1F4F8B819C81E9
:1016700003969C838B830031110509F07ACF0F907C
:101680000F900F900F90DF91CF911F910F91FF90CE
:10169000EF90DF90CF90BF90AF909F908F907F9012
:1016A0006F905F904F903F902F900C946D0A0F9029
:1016B0000F900F900F90DF91CF911F910F91FF909E
:1016C000EF90DF90CF90BF90AF909F908F907F90E2
:1016D0006F905F904F903F902F900895E6ECF9E067
:1016E0008AE090E0A0E0B0E0828F938FA48FB58F66
:1016F00084E192E091A380A3BF018BEB99E00C946D
:101700005F0A0C946E0BDC015A964D915D916D91C0
:101710007C915D974A30510561057105A9F4909659
:10172000ED91FC91A4E1B2E0CF0144962191319179
:101730002D933D93E817F907C9F781E080937C0664
:101740000E946E0B0C9422080895E3EFF9E08AE002
:1017500090E0A0E0B0E0828F938FA48FB58F80E0FF
:1017600092E091A380A3BF0188EE99E00C945F0AF8
:101770000C94A50BDC015A964D915D916D917C9175
:101780005D974A30510561057105F9F49096ED9128
:10179000FC91A0E0B2E09F012C5E3F4F81919191BE
:1017A0008630910514F085E090E097FF02C090E04C
:1017B00080E08D939D93E217F30781F781E080939A
:1017C0007D060E94A50B0C94220808958DEB92E0F3
:1017D000089581EA92E0089580E892E008958DE608
:1017E00092E008954F925F926F927F928F929F92B4
:1017F000AF92BF92EF92FF920F931F93CF93DF931D
:1018000000D01F92CDB7DEB77C018B01FB01819127
:10181000BF01F7018283CE0101960E94EB07898107
:101820009A81AB81BC814C015D01F5E08F0E911C6A
:10183000A11CB11CA8014C5F5F4FFA0125E030E00C
:101840002901712C612C481459046A047B0428F482
:10185000618161932F5F3F4FF3CFF801E80FF91FCC
:101860001482F7015483438305960F900F900F90D5
:101870000F90DF91CF911F910F91FF90EF90BF904C
:10188000AF909F908F907F906F905F904F90089552
:101890008CE492E0089583E392E008954F925F9282
:1018A0006F927F928F929F92AF92BF92CF92DF9270
:1018B000EF92FF920F931F93CF93DF93CDB7DEB7D5
:1018C0002C970FB6F894DEBF0FBECDBF7C018B0105
:1018D000DB018C9190E0F7019383828311962C9128
:1018E000922B938382836E5F7F4FCE0101960E947D
:1018F000EB0789809A80AB80BC8024013501F6E03B
:101900004F0E511C611C711C98012B5F3F4FF90158
:1019100086E090E0AC0170E060E044155505660596
:10192000770520F4418141930196F4CFB4016A5FB9
:101930007F4FF801E80DF91D1582D70115963C93EC
:101940002E931497600F711FCE0105960E94EB072E
:10195000BAE08B0E911C4D805E806F807884C4014C
:10196000092C000CAA0BBB0B5C016D01A40CB51C6F
:10197000C61CD71CF801E80DF91DAF01401B510B27
:1019800070E060E04A155B056C057D0538F4219137
:10199000AF0142505109DA012C93EFCF480C591C8A
:1019A000B801640D751DFB0131971082C4010197C8
:1019B000800F911FF70197838683CE0109960E94BD
:1019C000EB0792012C5F3F4F89849A84AB84BC84DF
:1019D000A901032E000C660B770B480D591D6A1DDB
:1019E0007B1DF801E20FF31FCF01801B910BB0E0CC
:1019F000A0E084179507A607B70728F48191DF01B7
:101A000012978C93F1CFC901880D991DF801E80F49
:101A1000F91FDF0111971C9221503109020F131F8A
:101A2000D70119961C930E9318972181428150E09B
:101A300070E060E0BA0155274427522B2081422BE9
:101A40002381722BF7014287538764877587049639
:101A50002C960FB6F894DEBF0FBECDBFDF91CF91AD
:101A60001F910F91FF90EF90DF90CF90BF90AF90BC
:101A70009F908F907F906F905F904F90089582E13C
:101A800092E0089584E092E00895FC01DB014C911E
:101A900050E070E060E04283538364837583119665
:101AA0008C911197582B42835383648375831296CC
:101AB0008C911297682B42835383648375831396AA
:101AC0008C911397782B4283538364837583149688
:101AD0004C91149750E070E060E046835783608734
:101AE000718715968C911597582B4683578360877D
:101AF000718716968C911697682B4683578360875B
:101B0000718717968C91782B4683578360877187EE
:101B100088E090E00895DC01FB0112968C91129709
:101B2000808313968C911397818314968C911497CC
:101B3000828315968C911597838316968C911697B0
:101B4000848317968C911797858318968C91189794
:101B5000868319968C91878388E090E00895CF93CF
:101B6000DF9348E150E069E575E088E298E00E9483
:101B7000A003EC0142E050E062E775E088E298E003
:101B80000E94A0038C0F9D1FDF91CF910895EF92CB
:101B9000FF920F931F93CF93DF938C01EB01FC0116
:101BA000A281B381FD0101900020E9F731977F0107
:101BB000EA1AFB0AA70170E060E0CE010E941C084F
:101BC000F80162817381A701CE0104960E948C20E6
:101BD000CE0DDF1DF80184818C8385818D83868104
:101BE0008E8387818F838085888781858987828599
:101BF0008A8783858B87C7010C96DF91CF911F91D0
:101C00000F91FF90EF9008954F925F926F927F92A5
:101C10008F929F92AF92BF92CF92DF92EF92FF92FC
:101C20000F931F93CF93DF93EC017B018A81FB011C
:101C300080838B8181838C8182838D8183833496A1
:101C4000412C512C320104E010E09F012F5F3F4FE7
:101C5000CF010296DF011396A8010C5F1F4F8A8007
:101C60009B80AC80BD80481459046A047B04C8F48E
:101C7000AA85BB85A40FB51F14974C9111962C9182
:101C8000119712969C91129713968C914083218301
:101C9000928383838FEF481A580A680A780A349629
:101CA000D4CF4C8540834D85F90140832E85FC01BE
:101CB00020838F858C93F701E00FF11F412C512C6D
:101CC0003201AF019F012F5F3F4FCF010296DF012D
:101CD00013960C5F1F4F8C849D84AE84BF84481480
:101CE00059046A047B04D8F4CF01841B950BAC899A
:101CF000BD89A80FB91F3C9111962C91119712968E
:101D00009C91129713968C913083218392838383C5
:101D10008FEF481A580A680A780A3496D3CF4E894A
:101D200040834F89F9014083288DFC012083898DF0
:101D30008C93412C512C32018E899F89A88DB98DAD
:101D4000481659066A067B0680F55201AA0CBB1C90
:101D5000EC8DFD8DEA0DFB1DA081B181FD0101908F
:101D60000020E9F731976F01CA1ADB0AA60170E07B
:101D700060E0C701800F911F0E941C080C5F1F4F7D
:101D80008C8D9D8DA80EB91EF50160817181A60113
:101D9000C701800F911F0E948C200C0D1D1DFFEFAD
:101DA0004F1A5F0A6F0A7F0AC7CFC801DF91CF9130
:101DB0001F910F91FF90EF90DF90CF90BF90AF9069
:101DC0009F908F907F906F905F904F900895EF92CB
:101DD000FF920F931F93CF93DF938C017B01DC0164
:101DE00012962C911297FB012193CF011396ED913E
:101DF000FC91EF0109900020E9F72197CE1BDF0B42
:101E0000AE0170E060E00E941C08D80113966D914D
:101E10007C91AE01C70105960E948C20CE010596EB
:101E2000DF91CF911F910F91FF90EF900895CF9286
:101E3000DF92EF92FF920F931F93CF93DF936C018A
:101E4000EB01DC0112968C911297888313968C918A
:101E5000139789831496ED91FC91DF010D9000207A
:101E6000E9F78D01015011090E1B1F0BA80170E04D
:101E700060E0CE0102960E941C08F6016481758123
:101E8000A801CE0106960E948C20C8010696F60194
:101E9000A681B781FD0101900020E9F731977F010C
:101EA000EA1AFB0AA70170E060E08C0F9D1F0E94F8
:101EB0001C08065F1F4FD60116966D917C91A701F5
:101EC000CE01800F911F0E948C200E0D1F1DF60168
:101ED000A085B185FD0101900020E9F731977F01D0
:101EE000EA1AFB0AA70170E060E0CE01800F911FA3
:101EF0000E941C080C5F1F4FD60118966D917C91B3
:101F0000A701CE01800F911F0E948C20C701800F76
:101F1000911FF6016285438534852585C80FD91F39
:101F2000688349833A832B830496DF91CF911F9175
:101F30000F91FF90EF90DF90CF9008954F925F92B6
:101F40006F927F92AF92BF92CF92DF92EF92FF9209
:101F50000F931F93CF93DF93EC015B01FB01C080D4
:101F6000D180E280F3808A819B81AC81BD818C1518
:101F70009D05AE05BF0560F48CE08C9DB0018D9D84
:101F8000700D11248A899B890E94AB1F9B8B8A8BC1
:101F9000CA82DB82EC82FD82F12CE12C412C512C97
:101FA000320104E010E06E01F6E0CF0ED11CF50125
:101FB000E00FF11F8A819B81AC81BD8148165906D3
:101FC0006A067B06C8F4BF01C6010E948209080F99
:101FD000191FAA89BB89AE0DBF1D8CE0F6010190C7
:101FE0000D928A95E1F78FEF481A580A680A780A25
:101FF000ECE0EE0EF11CDBCF808190E0B0E0A0E0E1
:102000008C8B9D8BAE8BBF8B2181922B8C8B9D8B70
:10201000AE8BBF8B2281A22B8C8B9D8BAE8BBF8B0B
:102020002381B22B8C8B9D8BAE8BBF8BC80104960A
:10203000DF91CF911F910F91FF90EF90DF90CF90A4
:10204000BF90AF907F906F905F904F9008958F9268
:102050009F92AF92BF92CF92DF92EF92FF920F9337
:102060001F93CF93DF93EC018B0102960E949E0F8A
:10207000080F191FF80120813181C280D12CF12C69
:10208000E12C7601DD24CC24D32AC22A2381F22A32
:102090005C01F4E0AF0EB11C8A8D9B8DAC8DBD8DC3
:1020A0008C159D05AE05BF0548F4B601660F771F78
:1020B00088A199A10E94AB1F99A388A3CA8EDB8E29
:1020C000EC8EFD8E480180E090E0DC01AE01425EC6
:1020D0005F4FCA8CDB8CEC8CFD8C8C159D05AE059E
:1020E000BF05F8F4F4012581348123273227232703
:1020F0003F8F2E8FF2E0AF0EB11CB401601B710B4D
:1021000028A139A1260F371FFA0160817181F901D9
:10211000718360830196A11DB11DF2E08F0E911CA9
:10212000D8CFC501DF91CF911F910F91FF90EF9014
:10213000DF90CF90BF90AF909F908F9008950F93B6
:102140001F93CF93DF938C01EC012796CE010E9461
:102150002710D8019996ED91FC91CE01DF91CF9196
:102160001F910F9119942F923F924F925F926F920D
:102170007F928F929F92AF92BF92CF92DF92EF9217
:10218000FF920F931F93CF93DF93CDB7DEB72E97B8
:102190000FB6F894DEBF0FBECDBF8C016B01DB0123
:1021A0008D909D90AD90BC90FC0182819381A48123
:1021B000B58188159905AA05BB0570F4B401660FB1
:1021C000771F660F771F828593850E94AB1FD8010A
:1021D0001B969C938E931A97F80182829382A48215
:1021E000B582C60140E050E0BA01A4E0EA2EF12C2D
:1021F00098012A5F3F4FDC011596EC9115971696D2
:102200004C901697512C712C612C3201552444248A
:102210005E2A1496EC9114974E2A1796EC917E2A1A
:10222000D7011701E4E02E0E311C71010496F8016C
:1022300082809380A480B580481559056A057B0586
:10224000A8F446825782608671861497A284B3846C
:10225000AA0DBB1DE4E0BE2EF90101900D92BA94C7
:10226000E1F74F5F5F4F6F4F7F4FC5CF84859585F7
:10227000A685B78584159505A605B70570F4B20146
:10228000660F771F660F771F848995890E94AB1FA1
:10229000D80155969C938E935497F80144865586A1
:1022A00066867786C601820D931D412C512C320122
:1022B0001C019801205F3F4FDC0111966C91119732
:1022C00012968C901297912CB12CA12C5401992428
:1022D0008824962A6C91862A13966C91B62AB4E0CB
:1022E000EB0EF11CF801448555856685778544160B
:1022F000550666067706C0F4808A918AA28AB38A58
:10230000BC0162197309A489B589A60FB71F64E0DF
:10231000F90101900D926A95E1F7BFEF4B1A5B0A44
:102320006B0A7B0A0496C8CF86899789A08DB18DE8
:1023300088159905AA05BB0560F4B401660F771FDF
:10234000848D958D0E94AB1FD8015D969C938E93D2
:102350005C97F801868A978AA08EB18E412C512C09
:1023600032011801FAE12F0E311CF8018689978994
:10237000A08DB18D481659066A067B0608F05CC030
:10238000B6016E0D7F1DCE0101960E94EB079701ED
:102390002C5F3F4F3E872D8789809A80AB80BC8021
:1023A000C901032E000CAA0BBB0BAC01BD01480DEB
:1023B000591D6A1D7B1D49875A876B877C87F901E8
:1023C000EC0DFD1D9F012C193D09B90190E080E045
:1023D00029853A854B855C856217730784079507C5
:1023E00028F42191DF0112972C93ECCFED84FE8429
:1023F000E80CF91CF601EE0DFF1D319710828D855A
:102400009E8501978C0D9D1DD8015B969C938E93A4
:102410005A97C201880F991F5C96ED91FC91E80FC5
:10242000F91FD1018D919C9191838083BFEF4B1A4D
:102430005B0A6B0A7B0A99CFC7012E960FB6F894F8
:10244000DEBF0FBECDBFDF91CF911F910F91FF90E7
:10245000EF90DF90CF90BF90AF909F908F907F9044
:102460006F905F904F903F902F900895FC01848172
:1024700095810C94221F2F923F924F925F926F9200
:102480007F928F929F92AF92BF92CF92DF92EF9204
:10249000FF920F931F93CF93DF93CDB7DEB7E097F3
:1024A0000FB6F894DEBF0FBECDBF8C010E945D0653
:1024B0002B013C01980129573B4F3E8F2D8FF9018D
:1024C00080819181A281B381A3019201281B390BE4
:1024D0004A0B5B0BDA01C901893F9A42A105B1059C
:1024E00010F035971082480148E8841A4BEF940A9F
:1024F000D4018D919C91892B79F0F801E557FB4F20
:1025000080819181A281B38184159505A605B705C7
:1025100018F4F40111821082980120583B4F3A8F31
:10252000298FA80144585B4F5C8F4B8F180154E1F1
:10253000250E311CC8018E579B4F9AA389A3D80141
:10254000A057BB4FB8A7AFA3F801E157FB4FFAA7BD
:10255000E9A75801F6E8AF1AFBEFBF0A225031098C
:1025600038A32F8FA80145575B4F5CA74BA7D3011A
:10257000C2014496A11DB11D8DA79EA7AFA7B8AB00
:10258000D80112968D919C91DC01ED91FC91028411
:10259000F385E02D19959C0197FD01C3E98DFA8D16
:1025A00080819181820F931F91838083D4014D910B
:1025B0005C91119747305105E1F4EF8DF8A18081CE
:1025C0009181AC014F5F5F4F51834083800F911F1A
:1025D000DC0154962C93F5018081918101979183C0
:1025E0008083892B69F688E090E0D4018D939C93D9
:1025F000C7CF4115510509F03FC02F3F310589F480
:1026000081E090E0F401918380832DA53EA54FA544
:1026100058A9ABA5BCA52D933D934D935C931397FF
:10262000AFCF0E945D066419750986099709663067
:1026300071058105910508F4A3CFF801EE57FB4F12
:1026400010828EEF9FEFE0960FB6F894DEBF0FBEBC
:10265000CDBFDF91CF911F910F91FF90EF90DF9051
:10266000CF90BF90AF909F908F907F906F905F9032
:102670004F903F902F9008954130510581F482E0B2
:1026800090E02E3F310571F11D921C92E9A1FAA153
:102690008081811175CFC8010E94B50771CF42308A
:1026A000510589F4D5012D933C93EF8DF8A111824A
:1026B000108283E090E0D4018D939C93E98DFA8D94
:1026C000318320835DCF4330510581F4322F22279F
:1026D000D5018D919C911197280F391F2D933C9313
:1026E00084E090E0F401918380834ACF4430510527
:1026F00071F460E071E00E94561E8F3F910519F45D
:1027000085E090E072CFF4011182108239CF45301C
:10271000510571F4AB8DBC8D2D933C9386E090E018
:10272000F40191838083A98DBA8D2D933C9328CF9A
:102730004630510591F4322F2227EB8DFC8D80819C
:102740009181280F391F3183208387E090E08D939A
:102750009C93F5018081918144CF4830510509F067
:102760000FCF1D921C9260E071E00E94561E8F3FB9
:10277000910509F005CFAB8DBC8DED91FC913097A3
:1027800009F03EC1C8010E94B5078CE994E09A8324
:1027900089831C821B8284E795E09E838D839887C2
:1027A0008F839A8789871B861C861D861E866801F3
:1027B000BCEECB1ABBEFDB0A7801EAEBEE1AEBEFCB
:1027C000FE0A28EA222E24E0322ED601AD90BC90DB
:1027D000A114B10409F470C01A8A198A388A2F86A4
:1027E0001E8A1D8A86E990E00E94861E9C8B8B8B38
:1027F000FC0110828B569F4FDC011C92F5018581F4
:1028000096819C838B83608171814281CE010F967A
:102810000E945A0A9E838D83D601ED91FC9183819B
:102820009481DC01ED91FC910480F581E02D1995F6
:10283000BC01CE010F960E94170A98878F83D6019C
:10284000ED91FC9183819481DC01ED91FC910680F6
:10285000F781E02D1995BC01CE010F960E94170A51
:102860009A87898720E032E040E050E02B873C8760
:102870004D875E87D601ED91FC9161857285D80107
:10288000ED91FC910190F081E02DAE014F5F5F4F23
:10289000C801199589899A8965E775E081309105A4
:1028A00021F0029729F469E875E0C8010E947D03D0
:1028B000CE010F960E943612B2E0CB0ED11CEC1462
:1028C000FD0409F082CF98EAA92E94E0B92EF70111
:1028D000C080D180C114D10409F477C01A8A198A42
:1028E000B88AAF861E8A1D8A86E990E00E94861EFD
:1028F0009C8B8B8BDC011C928B569F4FFC011082B2
:10290000D60112968D919C9113979C838B8314967C
:102910006D917C91159716964C91CE010F960E9461
:102920005A0A9E838D83F70180819181DC01ED91AC
:10293000FC910480F581E02D1995BC01CE010F9624
:102940000E94170A98878F83F70180819181DC01AB
:10295000ED91FC910680F781E02D1995BC01CE0127
:102960000F960E94170A9A87898720E032E040E09C
:1029700050E02B873C874D875E87D801ED91FC9115
:10298000C080D180F70180819181DC01ED91FC91C3
:102990000280F381E02D1995AE014F5F5F4FBC01BE
:1029A000C801F601199589899A8965E775E0813032
:1029B000910521F0029729F469E875E0C8010E94A9
:1029C0007D03CE010F960E943612F2E0EF0EF11C4D
:1029D0008E149F0409F07BCFF801EE57FB4F81E086
:1029E000808331964082518262827382AD8DBE8D2A
:1029F0004D925D926D927C9213978FEF9FEF23CE55
:102A0000EA30F10509F0A3C084EB94E09A8389834E
:102A10001B821C821D821E821F82188619861A86BE
:102A20000E945D06F801C084D184E284F3849B0196
:102A3000AC012C193D094E095F0969017A01B10108
:102A4000CE0101960E94450DC701B60128EE33E084
:102A500040E050E00E94DA1D69017A019B01AC015F
:102A60008B819C81AD81BE818C0D9D1DAE1DBF1DD6
:102A70008B839C83AD83BE8360E472E48FE090E03F
:102A80000E943A1ECF80D884E984FA84DC01CB010D
:102A90008C0D9D1DAE1DBF1D8F839887A987BA879A
:102AA0000E945D06CF80D884E984FA8436E3D31A85
:102AB00035E6E30A34ECF30A28EE33E040E050E078
:102AC0000E94DA1D2BA33CA34DA35EA39B01AC0186
:102AD00060E472E48FE090E00E943A1EA701960144
:102AE000261B370B480B590BCA01B901CB80DC8080
:102AF000ED80FE8031E0C31AD108E108F1082BA176
:102B00003CA14DA15EA1C21AD30AE40AF50A20E055
:102B10003AEC4AE95BE30E94DA1D2C0D3D1D4E1D87
:102B20005F1DD8011C962D933D934D935C931F9789
:102B3000F801608B718B828B938B0E945D06AD8D4B
:102B4000BE8D6D937D938D939C93139719CDE63035
:102B5000F10551F4B1018FA198A50E94B31081E055
:102B6000E9A5FAA580830CCDEB30F10521F4A9A1EC
:102B7000BAA11C9205CDE154FE4FEE0FFF1FE00FEE
:102B8000F11F80819181009709F4FACCDC01ED916D
:102B9000FC910190F081E02DB1011995F1CCF80183
:102BA000EE57FB4F8081882301F17801BDE7EB1AD6
:102BB000BBEFFB0AF70180819181A281B381A30160
:102BC0009201281B390B4A0B5B0BDA01C901853CCA
:102BD0009940A105B10548F0C8010E94B507D70189
:102BE0004D925D926D927C92139790E080E02BCD98
:102BF000CF93DF93EC010E943612CE01DF91CF918B
:102C00000C94221F1F920F920FB60F9211240BB635
:102C10000F922F933F934F935F936F937F938F9375
:102C20009F93AF93BF93EF93FF938BE897E00E943E
:102C30001E04FF91EF91BF91AF919F918F917F9172
:102C40006F915F914F913F912F910F900BBE0F901D
:102C50000FBE0F901F9018951F920F920FB60F92F4
:102C600011240BB60F922F938F939F93EF93FF93A3
:102C7000E0919B07F0919C078081E091A107F09182
:102C8000A20782FD1DC090818091A4078F5F8F7382
:102C90002091A507821741F0E091A407F0E0E557E5
:102CA000F84F958F8093A407FF91EF919F918F919B
:102CB0002F910F900BBE0F900FBE0F901F90189585
:102CC0008081F2CF1F920F920FB60F9211240BB694
:102CD0000F922F933F934F935F936F937F938F93B5
:102CE0009F93AF93BF93EF93FF9388E298E00E9486
:102CF0001E04FF91EF91BF91AF919F918F917F91B2
:102D00006F915F914F913F912F910F900BBE0F905C
:102D10000FBE0F901F9018951F920F920FB60F9233
:102D200011240BB60F922F938F939F93EF93FF93E2
:102D3000E0913808F09139088081E0913E08F091E7
:102D40003F0882FD1DC09081809141088F5F8F7385
:102D500020914208821741F0E0914108F0E0E85DDF
:102D6000F74F958F80934108FF91EF919F918F913D
:102D70002F910F900BBE0F900FBE0F901F901895C4
:102D80008081F2CF1F920F920FB60F9211242F93D2
:102D90003F938F939F93AF93BF93809183069091BE
:102DA0008406A0918506B09186063091820623E0C4
:102DB000230F2D3758F50196A11DB11D20938206D2
:102DC0008093830690938406A0938506B09386062D
:102DD0008091870690918806A0918906B0918A0615
:102DE0000196A11DB11D8093870690938806A0933C
:102DF0008906B0938A06BF91AF919F918F913F91C1
:102E00002F910F900FBE0F901F90189526E8230F5B
:102E10000296A11DB11DD2CF1F920F920FB60F9235
:102E200011240BB60F922F933F934F935F936F93A1
:102E30007F938F939F93AF93BF93EF93FF9348E25A
:102E400051E064E271E090E080E00E946906FF9149
:102E5000EF91BF91AF919F918F917F916F915F9112
:102E60004F913F912F910F900BBE0F900FBE0F907F
:102E70001F9018951F920F920FB60F9211240BB648
:102E80000F922F933F934F935F936F937F938F9303
:102E90009F93AF93BF93EF93FF9348EA50E064EAA8
:102EA00070E083E090E00E946906FF91EF91BF918E
:102EB000AF919F918F917F916F915F914F913F91D2
:102EC0002F910F900BBE0F900FBE0F901F90189573
:102ED0001F920F920FB60F9211240BB60F922F93E1
:102EE0003F934F935F936F937F938F939F93AF9392
:102EF000BF93EF93FF9348E950E064E970E082E00C
:102F000090E00E946906FF91EF91BF91AF919F9170
:102F10008F917F916F915F914F913F912F910F9082
:102F20000BBE0F900FBE0F901F9018951F920F921F
:102F30000FB60F9211240BB60F922F933F934F931E
:102F40005F936F937F938F939F93AF93BF93EF9311
:102F5000FF9348E850E064E870E081E090E00E9470
:102F60006906FF91EF91BF91AF919F918F917F91F2
:102F70006F915F914F913F912F910F900BBE0F90EA
:102F80000FBE0F901F9018951F920F920FB60F92C1
:102F900011240BB60F92AF92BF92CF92DF92EF92B5
:102FA000FF920F931F932F933F934F935F936F93D2
:102FB0007F938F939F93AF93BF93CF93DF93EF93C1
:102FC000FF939CEBC92E94E0D92E02E819E026E588
:102FD000E22E29E0F22ED0E0C0E0F60121913191FD
:102FE0006F013327F901E656FB4F8491F901EC5A42
:102FF000FB4FB490F901E25FFB4FA490AA2009F4C3
:103000004CC081110E94DA04EA2DF0E0EE0FFF1FA0
:10301000EA57FC4FA591B491EC91BE2231E020E03B
:1030200009F430E0832F922F282F2170FE01E85CF5
:10303000FD4F3081321751F02083F1E08F278170EE
:10304000F8018283B801C7010E945F0A21960D5FD3
:103050001F4FFBE0EF0EF11CC430D10509F0BDCFCE
:10306000FF91EF91DF91CF91BF91AF919F918F91A0
:103070007F916F915F914F913F912F911F910F9190
:10308000FF90EF90DF90CF90BF90AF900F900BBE6E
:103090000F900FBE0F901F90189590E080E0C4CF66
:1030A000FC018EE594E09183808382E594E0938334
:1030B0008283148215821682178286E494E09187B7
:1030C000808784E795E09387828714861586168625
:1030D0001786108A118A128A138A158A148A168A08
:1030E000178A108E118E128E138E148E158E11A2C9
:1030F00010A208950F931F93CF93DF9310928E0722
:1031000010928D0748EE53E060E070E040938F0727
:1031100050939007609391077093920784EE94E028
:1031200090938C0780938B072DEC30E030939807B9
:10313000209397072CEC30E030939A07209399075F
:1031400028EC30E030939C0720939B0729EC30E07B
:1031500030939E0720939D072AEC30E03093A00720
:1031600020939F072EEC30E03093A2072093A10715
:103170001092A4071092A5071092A6071092A70715
:1031800010922B0810922A0840932C0850932D0877
:1031900060932E0870932F08909329088093280835
:1031A00085EC90E0909335088093340884EC90E0AF
:1031B000909337088093360880EC90E0909339081C
:1031C0008093380881EC90E090933B0880933A0814
:1031D00082EC90E090933D0880933C0886EC90E070
:1031E00090933F0880933E08109241081092420845
:1031F0001092430810924408E1EDFFE02FEF48EBF6
:103200005BE080915509803308F0C3C191E0980FCD
:1032100090935509808390E0DC01AA0FBB1FA80F93
:10322000B91FAB53B74F12965C934E9311973396D9
:103230008FE0E93EF80729F782E095E09093240BB0
:103240008093230B88E298E09093260B8093250BC4
:1032500080E091EEA0E0B0E08093270B9093280BE4
:10326000A093290BB0932A0B1092A50F86EF94E040
:103270009093B40F8093B30F1092C90F1092CA0F9E
:103280001092CB0F1092CC0F1092D00F1092CF0F44
:10329000E7E3FFE0119211928FE0E936F807D1F7EA
:1032A000E9E6FFE0119211928FE0EB39F807D1F7D0
:1032B000E7E3FBE087E39DE011928E179F07E1F7BC
:1032C000E7E3FDE087E39FE011928E179F07E1F7A8
:1032D0001092B50F1092B60F1092B70F1092B80F50
:1032E0001092BE0F1092BD0F1092BF0F1092C00F20
:1032F0001092C10F1092C20F1092C80F1092C70FF8
:1033000008E115E01093F70A0093F60A8DEF9AE0B2
:103310000E9450188AEB9BE09093200B80931F0B28
:10332000C1E0D0E0D093220BC093210B8DE995E052
:103330009093FB0A8093FA0A1092FC0A1093CA0A2F
:103340000093C90A80ED9AE00E94501883E89BE040
:103350009093F30A8093F20AD093F50AC093F40A8B
:103360008DEA95E09093CE0A8093CD0A1092CF0A11
:1033700010939D0A00939C0A83EA9AE00E945018D9
:1033800082E89AE09093C60A8093C50AD093C80A4F
:10339000C093C70A80EC95E09093A10A8093A00A9D
:1033A0001092A20A1093700A00936F0A86E79AE0BF
:1033B0000E94501888EB9BE09093990A8093980A9A
:1033C000D0939B0AC0939A0A80ED95E09093740A7B
:1033D0008093730A1092750A1093430A0093420A6D
:1033E00089E49AE00E94501881E89BE090936C0A6F
:1033F00080936B0AD0936E0AC0936D0A84EE95E0B9
:103400009093470A8093460A1092480A1093160A2E
:103410000093150A8CE19AE00E94501880E89AE027
:1034200090933F0A80933E0AD093410AC093400A8A
:103430008BEF95E090931A0A8093190A10921B0A59
:1034400083EF99E00E9450188FE096E09093E9098D
:103450008093E8091092EA0983EF99E09093EC09D0
:103460008093EB091092F2091092F10986EC99E031
:103470000E9450188EE196E09093BC098093BB099E
:103480001092BD0986EC99E09093BF098093BE0924
:103490001092C5091092C40989E999E00E94501858
:1034A00080E396E090938F0980938E0910929009A3
:1034B00089E999E090939209809391091092980973
:1034C000109297098CE095E090938309809382098C
:1034D0001092840990938609809385091092870938
:1034E000909389098093880910928A0990938C0996
:1034F00080938B0910928D098FE396E09093570982
:10350000809356091092580982E899E090935A09DD
:10351000809359091092600910925F098EE496E039
:1035200090936209809361091092630985E899E09C
:10353000909365098093640910926B0910926A094F
:103540008DE596E090936D0980936C0910926E0959
:1035500088E899E09093700980936F09109276093A
:10356000109275098CE696E090937809809377091C
:10357000109279098BE899E090937B0980937A09FE
:103580001092810910928009DF91CF911F910F91C4
:10359000089520834CCE789484B5826084BD84B530
:1035A000816084BD85B5826085BD85B5816085BD3E
:1035B00080916E00816080936E00109281008091F6
:1035C000810082608093810080918100816080937E
:1035D0008100809180008160809380008091B100A3
:1035E00084608093B1008091B00081608093B000CE
:1035F0008091910082608093910080919100816020
:1036000080939100809190008160809390008091E0
:10361000A10082608093A1008091A10081608093CD
:10362000A1008091A00081608093A0008091210181
:10363000826080932101809121018160809321012A
:103640008091200181608093200180917A008460C4
:1036500080937A0080917A00826080937A008091D2
:103660007A00816080937A0080917A0080688093EC
:103670007A001092C1000E9438066B017C0102E3BF
:10368000802E912CA12CB12C0E9438066C197D093A
:103690008E099F09683E734081059105A8F321E0DA
:1036A000821A9108A108B10888EEC80E83E0D81EDE
:1036B000E11CF11C81149104A104B10429F740E03C
:1036C00051EE60E070E088E298E00E94A40240E0E1
:1036D00051EE60E070E08BE897E00E94A40284E184
:1036E00090E0A0E0B0E080938F0790939007A093C4
:1036F0009107B093920761E08CE00E940706C1ED4C
:10370000DFE014ECE12E14E0F12E0CE012E08881F1
:10371000803308F050C0F701D08061E08D2D0E9409
:1037200007068881282F30E0F901EE0FFF1FE20F16
:10373000F31FEB53F74F2D2D2F739081907C922B1D
:10374000908319821A82602F0E944A1E809FB001C6
:10375000112430E020E0AB01420F531FFA01EE0FBD
:10376000FF1FE40FF51FEB53F74F908196FD16C036
:103770002F5F3F4F2C30310571F7813009F0C3C006
:1037800010928000109381001092850010928400A6
:10379000B19A80916F00826080936F00E8818E2FD4
:1037A00090E0FC01EE0FFF1FE80FF91FEB53F74FFE
:1037B0008081806480832396F2E0EF0EF11C2FE07D
:1037C000C93ED20709F0A3CF62E08EE30E9407064C
:1037D00062E08FE30E94070662E080E40E94070631
:1037E00062E081E40E940706809168008460809313
:1037F000680080916D008F6080936D0086E599E090
:103800000E943F0381E699E00E943F038CE699E025
:103810000E943F0387E799E00E943F030E94AF0D9B
:1038200080E00E94D00583E00E94DA0540E050E08D
:103830006AE972E48EEF0E94ED058CE680938B06B8
:1038400010928C068AE880938D0610928E06109254
:103850008F061092900666E08EEF0E946F0581E061
:103860000E94D0054091270B5091280B6091290BA5
:1038700070912A0B8091250B9091260B0E94A40237
:1038800010929C0F10929B0F10929E0F10929D0F02
:103890001092A20F1092A10F1092A00F10929F0FE2
:1038A00086EF9AE00E94600389EC9AE00E94600330
:1038B0008CE99AE00E9460038FE69AE00E94600320
:1038C00082E49AE00E94600385E19AE00E9460032E
:1038D00088EE99E00E943F038BEB99E00E943F0342
:1038E0008EE899E00E943F030E94AF0D0E94A50B55
:1038F0000E946E0B0E946D0A83E29BE00E943B12C5
:103900000E94AD04F9CF823061F410929000809350
:103910009100109295001092940088BB80937100E2
:103920003DCF833061F41092A0001093A10010925B
:10393000A5001092A40019BB109372002FCF811123
:103940002DCF109220011093210110922501109289
:1039500024011ABB1093730021CFE89409C097FB90
:103960003EF490958095709561957F4F8F4F9F4F56
:103970009923A9F0F92F96E9BB279395F69587959A
:1039800077956795B795F111F8CFFAF4BB0F11F45D
:1039900060FF1BC06F5F7F4F8F4F9F4F16C0882304
:1039A00011F096E911C0772321F09EE8872F762F3A
:1039B00005C0662371F096E8862F70E060E02AF07B
:1039C0009A95660F771F881FDAF7880F9695879567
:1039D00097F908950E94FD1C0C946E1D0E94601DB5
:1039E00038F00E94671D20F0952311F00C94571DAC
:1039F0000C945D1D11240C94A21D0E947F1D70F378
:103A0000959FC1F3950F50E0551F629FF001729F83
:103A1000BB27F00DB11D639FAA27F00DB11DAA1F92
:103A2000649F6627B00DA11D661F829F2227B00DDF
:103A3000A11D621F739FB00DA11D621F839FA00D6A
:103A4000611D221F749F3327A00D611D231F849FBA
:103A5000600D211D822F762F6A2F11249F57504011
:103A60009AF0F1F088234AF0EE0FFF1FBB1F661F8C
:103A7000771F881F91505040A9F79E3F510580F055
:103A80000C94571D0C94A21D5F3FE4F3983ED4F3B1
:103A9000869577956795B795F795E7959F5FC1F7F9
:103AA000FE2B880F911D9695879597F9089597F9A4
:103AB0009F6780E870E060E008959FEF80EC0895D4
:103AC00000240A94161617061806090608950024FD
:103AD0000A9412161306140605060895092E039477
:103AE000000C11F4882352F0BB0F40F4BF2B11F4EB
:103AF00060FF04C06F5F7F4F8F4F9F4F089557FD4A
:103B00009058440F551F59F05F3F71F04795880F4B
:103B100097FB991F61F09F3F79F0879508951216E2
:103B200013061406551FF2CF4695F1DF08C016168E
:103B300017061806991FF1CF86957105610508943F
:103B40000895E894BB2766277727CB0197F9089556
:103B5000052E97FB1EF400940E94BF1D57FD07D051
:103B60000E94DA1D07FC03D04EF40C94BF1D509543
:103B70004095309521953F4F4F4F5F4F0895909559
:103B80008095709561957F4F8F4F9F4F08950E944C
:103B9000FC1DA59F900DB49F900DA49F800D911DBD
:103BA00011240895B7FF0C94C71D0E94C71D821BE6
:103BB000930B0895A1E21A2EAA1BBB1BFD010DC099
:103BC000AA1FBB1FEE1FFF1FA217B307E407F507CD
:103BD00020F0A21BB30BE40BF50B661F771F881FA9
:103BE000991F1A9469F760957095809590959B013F
:103BF000AC01BD01CF010895A29FB001B39FC001E8
:103C0000A39F700D811D1124911DB29F700D811D08
:103C10001124911D08950E94871D88F09F5798F0E8
:103C2000B92F9927B751B0F0E1F0660F771F881FC1
:103C3000991F1AF0BA95C9F714C0B13091F00E94DB
:103C4000A11DB1E008950C94A11D672F782F88273E
:103C5000B85F39F0B93FCCF3869577956795B39502
:103C6000D9F73EF490958095709561957F4F8F4F71
:103C70009F4F0895DB018F939F930E94C71DBF91B3
:103C8000AF91A29F800D911DA39F900DB29F900DAB
:103C900011240895991B79E004C0991F961708F024
:103CA000961B881F7A95C9F78095089597FB072E74
:103CB00016F4009407D077FD09D00E94721E07FC0D
:103CC00005D03EF4909581959F4F0895709561952C
:103CD0007F4F0895EE0FFF1F881F8BBF0790F6914F
:103CE000E02D1994AA1BBB1B51E107C0AA1FBB1FE3
:103CF000A617B70710F0A61BB70B881F991F5A9578
:103D0000A9F780959095BC01CD0108950F931F935D
:103D1000CF93DF938230910510F482E090E0E09140
:103D2000EB0FF091EC0F30E020E0B0E0A0E0309736
:103D300099F42115310509F44AC0281B390B2430A8
:103D40003105D8F58A819B816115710589F1FB01E7
:103D500093838283FE0111C04081518102811381CE
:103D600048175907E0F04817590799F4109761F080
:103D700012960C93129713961C933296CF01DF91F3
:103D8000CF911F910F9108950093EB0F1093EC0FBB
:103D9000F4CF2115310551F04217530738F0A9012E
:103DA000DB019A01BD01DF01F801C1CFEF01F9CFBD
:103DB0009093EC0F8093EB0FCDCFFE01E20FF31F3A
:103DC000819391932250310939832883D7CF209151
:103DD000E90F3091EA0F232B41F420913E023091FC
:103DE0003F023093EA0F2093E90F20913C0230917B
:103DF0003D022115310541F42DB73EB740914002F7
:103E000050914102241B350BE091E90FF091EA0F2C
:103E1000E217F307A0F42E1B3F0B2817390778F0A1
:103E2000AC014E5F5F4F2417350748F04E0F5F1F00
:103E30005093EA0F4093E90F819391939FCFF0E065
:103E4000E0E09CCFCF93DF930097E9F0FC0132973D
:103E500013821282A091EB0FB091EC0FED0130E0D4
:103E600020E01097A1F420813181820F931F2091CF
:103E7000E90F3091EA0F2817390709F061C0F09374
:103E8000EA0FE093E90FDF91CF910895EA01CE1791
:103E9000DF07E8F54A815B819E0141155105B1F7C5
:103EA000E901FB83EA8349915991C40FD51FEC17AF
:103EB000FD0761F4808191810296840F951FE901CD
:103EC00099838883828193819B838A83F0E0E0E0F9
:103ED00012968D919C9113970097B9F52D913C9175
:103EE0001197CD010296820F931F2091E90F309117
:103EF000EA0F2817390739F6309751F51092EC0F71
:103F00001092EB0FB093EA0FA093E90FBCCFD383CD
:103F1000C28340815181840F951FC817D90761F46E
:103F20004E5F5F4F88819981480F591F51834083AD
:103F30008A819B81938382832115310509F0B0CF5B
:103F4000F093EC0FE093EB0F9ECFFD01DC01C0CFAF
:103F500013821282D7CF4F925F926F927F928F928D
:103F60009F92AF92BF92CF92DF92EF92FF920F9308
:103F70001F93CF93DF938C01009799F4CB01DF91CE
:103F8000CF911F910F91FF90EF90DF90CF90BF9056
:103F9000AF909F908F907F906F905F904F900C9418
:103FA000861EFC01E60FF71F9C0122503109E21723
:103FB000F30708F4AEC0D901CD91DC911197C61773
:103FC000D70720F1C530D10578F0CE0104978617C8
:103FD000970750F0C61BD70B2297C193D1936D93CF
:103FE0007C93CF010E94221FC801DF91CF911F91C6
:103FF0000F91FF90EF90DF90CF90BF90AF909F9088
:104000008F907F906F905F904F9008955B01AC1AF6
:10401000BD0A4C018C0E9D1EA091EB0FB091EC0FD0
:10402000512C412CF12CE12C109731F58091E90FA6
:104030009091EA0F8815990509F05CC0461657065D
:1040400008F058C080913C0290913D02009741F4E5
:104050008DB79EB74091400250914102841B950B51
:10406000E817F90708F055C0F093EA0FE093E90F5D
:10407000F90171836083B8CF8D919C91119712964D
:104080006C90129713967C901397A815B90559F563
:104090006C0142E0C40ED11CCA14DB0420F1AC0157
:1040A0004A195B09DA011296159780F062827382D1
:1040B00051834083D9016D937C93E114F10471F035
:1040C000D7011396FC93EE9312978ECF22968C0F06
:1040D0009D1FF90191838083F301EFCFF093EC0FE3
:1040E000E093EB0F81CF4816590608F42C017D01AF
:1040F000D3019ACFCB010E94861E7C01009749F024
:10410000AE01B8010E948C20C8010E94221F8701C5
:104110006BCF10E000E068CFFB01DC0102C0019032
:104120000D9241505040D8F70895F894FFCF010008
:104130000100010001000100010001000100010077
:104140000100B400B400B400B400B400B400B40082
:10415000B400B400B4005A005A005A005A005A0081
:104160005A005A005A00010101010000ED0F8000C1
:10417000000005800F800A001B801E0014001180C3
:10418000338036003C00398028002D8027802200B3
:10419000638066006C00698078007D8077807200A3
:1041A000500055805F805A004B804E004400418093
:1041B000C380C600CC00C980D800DD80D780D20083
:1041C000F000F580FF80FA00EB80EE00E400E18073
:1041D000A000A580AF80AA00BB80BE00B400B18063
:1041E000938096009C00998088008D808780820053
:1041F000838186018C01898198019D81978192013B
:10420000B001B581BF81BA01AB81AE01A401A1812A
:10421000E001E581EF81EA01FB81FE01F401F1811A
:10422000D381D601DC01D981C801CD81C781C2010A
:10423000400145814F814A015B815E0154015181FA
:10424000738176017C01798168016D8167816201EA
:10425000238126012C01298138013D8137813201DA
:10426000100115811F811A010B810E0104010181CA
:10427000038306030C03098318031D8317831203AA
:10428000300335833F833A032B832E03240321839A
:10429000600365836F836A037B837E03740371838A
:1042A000538356035C03598348034D83478342037A
:1042B000C003C583CF83CA03DB83DE03D403D1836A
:1042C000F383F603FC03F983E803ED83E783E2035A
:1042D000A383A603AC03A983B803BD83B783B2034A
:1042E000900395839F839A038B838E03840381833A
:1042F000800285828F828A029B829E029402918232
:10430000B382B602BC02B982A802AD82A782A20221
:10431000E382E602EC02E982F802FD82F782F20211
:10432000D002D582DF82DA02CB82CE02C402C18201
:10433000438246024C02498258025D8257825202F1
:10434000700275827F827A026B826E0264026182E1
:10435000200225822F822A023B823E0234023182D1
:10436000138216021C02198208020D8207820202C1
:1043700000000000C70D82097F097C0900000000D1
:10438000D6089E0FD308D00800000000350927107A
:104390002B0728072C0104010E01B400F0000401D2
:1043A0000E010901F000FA00780064005A005F0075
:1043B0003C0064005A00B40078006E000304050657
:1043C0000708090A0B0C00000000170F4E0C4B0CDD
:1043D000480C000000005A0A3612F815580A00006E
:1043E00000008B0D450D420D3F0D3E003F0040008B
:1043F0004100020003000400050007000800090056
:104400000A0000000000E70EF20BEF0BEC0B0000BF
:1044100000004004A003CD038D04FE03DC03F00381
:1044200000000000040EB310E90BE60B00000000D2
:1044300032073B12230700000000C908C208BF086A
:10444000BC08000000009F102E072B0728074D65B1
:1044500073736167652066726F6D2064657669634A
:10446000652064726F707065643A206D6573736166
:104470006765206C6172676572207468616E206286
:1044800075666665722E0041726475696E6F2052A2
:104490004F5320496E697469616C697A65642E00B6
:1044A0000D0A00466C6173682072656164206E6F4E
:1044B0007420696D706C00427566666572206F7657
:1044C0006572666C6F7720707562006D6F746F72C5
:1044D0005F73706565645F636D64006D6F746F72A8
:1044E0005F706F736974696F6E5F636D640073658D
:1044F00072766F5F616E676C655F636D64006D6F90
:10450000746F725F73706565645F726571756573F2
:1045100074006D6F746F725F706F736974696F6E22
:104520005F7265717565737400736572766F5F6134
:104530006E676C655F72657175657374006D6F741D
:104540006F725F73706565645F6662006D6F746F34
:10455000725F706F736974696F6E5F666200736516
:1045600072766F5F616E676C655F66620073776914
:104570007463685F315F7374617465007377697425
:1045800063685F325F737461746500737769746325
:10459000685F335F7374617465007377697463680F
:0A45A0005F345F73746174650000FE
:020000040003F7
:10E000000D9489F10D94B2F10D94B2F10D94B2F129
:10E010000D94B2F10D94B2F10D94B2F10D94B2F1F0
:10E020000D94B2F10D94B2F10D94B2F10D94B2F1E0
:10E030000D94B2F10D94B2F10D94B2F10D94B2F1D0
:10E040000D94B2F10D94B2F10D94B2F10D94B2F1C0
:10E050000D94B2F10D94B2F10D94B2F10D94B2F1B0
:10E060000D94B2F10D94B2F10D94B2F10D94B2F1A0
:10E070000D94B2F10D94B2F10D94B2F10D94B2F190
:10E080000D94B2F10D94B2F10D94B2F10D94B2F180
:10E090000D94B2F10D94B2F10D94B2F10D94B2F170
:10E0A0000D94B2F10D94B2F10D94B2F10D94B2F160
:10E0B0000D94B2F10D94B2F10D94B2F10D94B2F150
:10E0C0000D94B2F10D94B2F10D94B2F10D94B2F140
:10E0D0000D94B2F10D94B2F10D94B2F10D94B2F130
:10E0E0000D94B2F141546D656761323536300041AF
:10E0F000726475696E6F206578706C6F72657220DE
:10E1000073746B3530305632206279204D4C530099
:10E11000426F6F746C6F616465723E004875683F52
:10E1200000436F6D70696C6564206F6E203D200048
:10E130004350552054797065202020203D20005FF9
:10E140005F4156525F415243485F5F3D2000415658
:10E1500052204C696243205665723D20004743437C
:10E160002056657273696F6E203D20004350552024
:10E1700049442020202020203D20004C6F7720663D
:10E18000757365202020203D20004869676820665F
:10E190007573652020203D200045787420667573D6
:10E1A00065202020203D20004C6F636B2066757336
:10E1B000652020203D20004D617220203720323024
:10E1C000313300312E362E3800342E332E350056A2
:10E1D00023202020414444522020206F7020636F70
:10E1E00064652020202020696E73747275637469E1
:10E1F0006F6E2061646472202020496E74657272B3
:10E20000757074006E6F20766563746F7200726A49
:10E210006D702020006A6D70200057686174207056
:10E220006F72743A00506F7274206E6F7420737541
:10E2300070706F72746564004D7573742062652030
:10E2400061206C6574746572002000577269747483
:10E25000696E672045450052656164696E672045B7
:10E26000450045452065727220636E743D00504F35
:10E27000525400303D5A65726F2061646472003FF1
:10E280003D43505520737461747300403D454550C3
:10E29000524F4D207465737400423D426C696E6B41
:10E2A000204C454400453D44756D70204545505215
:10E2B0004F4D00463D44756D7020464C415348001B
:10E2C000483D48656C70004C3D4C69737420492F83
:10E2D0004F20506F72747300513D51756974005234
:10E2E0003D44756D702052414D00563D73686F7707
:10E2F00020696E7465727275707420566563746FF0
:10E30000727300593D506F727420626C696E6B00BD
:10E310002A0011241FBECFEFD1E2DEBFCDBF01E046
:10E320000CBF12E0A0E0B2E0EEE1FDEF03E00BBFB6
:10E3300002C007900D92A030B107D9F712E0A0E01B
:10E34000B2E001C01D92AE30B107E1F70F9460F367
:10E350000D948DFE01E20EBF0FEF0DBF11241FBE05
:10E360000D9460F30D9400F020E030E040ED57E0B4
:10E3700005C0FA013197F1F72F5F3F4F2817390792
:10E38000C0F308959C01260F311DC901A0E0B0E043
:10E390002F5F3F4FABBFFC018791882361F08093D3
:10E3A000C6008091C00086FFFCCF8091C0008064D1
:10E3B0008093C000EACF08958DE08093C6008091DD
:10E3C000C00086FFFCCF8091C00080648093C000B5
:10E3D0008AE08093C6008091C00086FFFCCF8091C8
:10E3E000C00080648093C00008950F94C2F10F9420
:10E3F000DCF10895FC019081992359F09093C600B7
:10E400008091C00086FFFCCF8091C0008064809323
:10E41000C0003196992379F70895282F982F929567
:10E420009F70892F805D8A3308F0895F8093C600D2
:10E430008091C00086FFFCCF8091C00080648093F3
:10E44000C000822F8F70982F905D9A3308F0995FEB
:10E450009093C6008091C00086FFFCCF8091C000E1
:10E4600080648093C00008959C01FB01853691056E
:10E470001CF46330710594F0C90164E670E00F94F8
:10E480002EFE605D7F4F6093C6008091C00086FFC6
:10E49000FCCF8091C00080648093C0002B30310598
:10E4A00014F43297B4F0C90164E670E00F942EFEC4
:10E4B0006AE070E00F942EFE605D7F4F6093C600AF
:10E4C0008091C00086FFFCCF8091C0008064809363
:10E4D000C000C9016AE070E00F942EFEC0968093E0
:10E4E000C6008091C00086FFFCCF8091C000806490
:10E4F0008093C00008951F93182F8EE692EE60E07F
:10E500000F94C2F11093C6008091C00086FFFCCF2B
:10E510008091C00080648093C0000F94DCF11F9153
:10E5200008952F923F924F925F926F927F928F92B7
:10E530009F92AF92BF92CF92DF92EF92FF920F9392
:10E540001F93DF93CF93CDB7DEB762970FB6F894E2
:10E55000DEBF0FBECDBF382E622ECA01DB015C01CB
:10E560006D01772420E2222E2E010894411C511CBB
:10E570008BC081E0A81680E0B80681E0C80680E084
:10E58000D80628F0C601AA27BB270F940DF2BB2797
:10E59000AD2D9C2D8B2D0F940DF28A2D0F940DF225
:10E5A0002092C6008091C00086FFFCCF8091C00001
:10E5B00080648093C0009DE29093C6008091C0006B
:10E5C00086FFFCCF8091C00080648093C0002092C1
:10E5D000C6008091C00086FFFCCF8091C00080649F
:10E5E0008093C00019828601750188249924A1E0D6
:10E5F0003A1651F03A1620F0B2E03B1661F409C029
:10E600000BBFF701779007C0C7010F9477FE782EF4
:10E6100002C0F7017080872D0F940DF22092C60082
:10E620008091C00086FFFCCF8091C0008064809301
:10E63000C000872D8052F401EF70F0708F3520F408
:10E64000E40DF51D708204C0E40DF51D8EE280839B
:10E650000894E11CF11C011D111D0894811C911CE2
:10E6600090E18916910409F0C2CF80E190E0A0E02A
:10E67000B0E0A80EB91ECA1EDB1E198AC2010F9493
:10E68000FAF10F94DCF16A94662009F072CF629679
:10E690000FB6F894DEBF0FBECDBFCF91DF911F91B3
:10E6A0000F91FF90EF90DF90CF90BF90AF909F9031
:10E6B0008F907F906F905F904F903F902F90089534
:10E6C0002F923F924F925F926F927F928F929F9282
:10E6D000AF92BF92CF92DF92EF92FF920F931F9370
:10E6E000DF93CF93CDB7DEB7CD53D1400FB6F894BB
:10E6F000DEBF0FBECDBF01E20EBF0FEF0DBF94B75F
:10E70000F894A89514BE80916000886180936000A1
:10E7100010926000789493FF05C0E0910002F091A0
:10E7200001021995279A2F9A8091C00082608093E8
:10E73000C00080E18093C40088E18093C1000000A4
:10E74000EE24FF24870144E0A42EB12CCC24DD2448
:10E7500024C0C5010197F1F70894E11CF11C011DCB
:10E76000111D21E2E2162EE4F20620E0020720E06D
:10E77000120718F031E0C32ED12CC801B70127ECE5
:10E780003BE140E050E00F9441FE611571058105C9
:10E79000910519F485B1805885B98091C00087FD35
:10E7A00003C0C114D104A9F2A6014F5F5F4FC25E3E
:10E7B000DE4F59834883CE51D140C25EDE4F8881FF
:10E7C0009981CE51D140019711F00D9410FEC05D9A
:10E7D000DE4F19821882C053D14060E0C15DDE4F28
:10E7E0001882CF52D14088249924C35DDE4F19820C
:10E7F0001882CD52D140C05EDE4F188219821A8233
:10E800001B82C052D140CE5CDE4F188219821A8220
:10E810001B82C253D140EE24FF2487010BBFF701B6
:10E8200007911691C45CDE4F19830883CC53D14005
:10E830000D940BFEC25EDE4F28813981CE51D1404E
:10E840002130310509F52091C600C25EDE4F1982E4
:10E850001882CE51D14022C02F5F3F4F4F4F5F4FA4
:10E86000213082E138078AE7480780E0580780F0C6
:10E87000C45CDE4FE881F981CC53D140EF5FFF4F9C
:10E8800019F0EE27FF27099420E030E040E050E047
:10E890008091C00087FFE0CF2091C600C35DDE4FAE
:10E8A00048815981CD52D1404F5F5F4FC35DDE4FEC
:10E8B00059834883CD52D140213209F063C64A3092
:10E8C000510508F05FC60894811C911C53E0851621
:10E8D000910409F059C600E010E018C081E280936D
:10E8E000C6008091C00086FFFCCF8091C00080648C
:10E8F0008093C0002F5F3F4F2931310579F70F9486
:10E90000DCF10F5F1F4F0530110519F020E030E0FA
:10E91000E5CF10920A0210920B0210920C02109294
:10E920000D02109206021092070210920802109235
:10E930000902109202021092030210920402109235
:10E9400005028FEE90EE60E00F94F5F180E191EE1C
:10E9500060E00F94C2F18091C00087FFFCCF9091DE
:10E96000C600903608F09F759032B8F09093C600BC
:10E970008091C00086FFFCCF8091C00080648093AE
:10E98000C000A0E2A093C6008091C00086FFFCCF2B
:10E990008091C00080648093C000983409F4D7C18E
:10E9A0009934B8F4923409F459C1933458F490333B
:10E9B00019F1903308F4E3C59F33A1F1903409F0C5
:10E9C000DEC5BDC0953409F470C1963409F0D7C5D1
:10E9D00098C1923509F42BC2933538F49C3409F46C
:10E9E000F5C1913509F0CBC518C2963509F445C279
:10E9F000993509F0C4C567C483E792EE62E00F94CD
:10EA0000F5F110920602109207021092080210927D
:10EA1000090210920A0210920B0210920C0210923C
:10EA20000D0213C18FE792EE62E00F94F5F18FEEC5
:10EA300090EE60E00F94F5F181E291EE60E00F94CA
:10EA4000C2F187EB91EE60E00F94F5F180E391EE77
:10EA500060E00F94C2F184EE90EE60E00F94F5F167
:10EA60008FE391EE60E00F94C2F186E090E061E008
:10EA700070E00F9434F20F94DCF18DE591EE60E0DC
:10EA80000F94C2F189EC91EE60E00F94F5F18EE401
:10EA900091EE60E00F94C2F183EC91EE60E00F9490
:10EAA000F5F18CE691EE60E00F94C2F18EE10F94E7
:10EAB0000DF288E90F940DF281E00F940DF20F949E
:10EAC000DCF18BE791EE60E00F94C2F119E0E0E039
:10EAD000F0E010935700E4918E2F0F940DF20F94F5
:10EAE000DCF18AE891EE60E00F94C2F1E3E0F0E03F
:10EAF00010935700E4918E2F0F940DF20F94DCF1D8
:10EB000089E991EE60E00F94C2F1E2E0F0E0109349
:10EB10005700E4918E2F0F940DF20F94DCF188EAE8
:10EB200091EE60E00F94C2F1E1E0F0E01093570045
:10EB30001491812F0F940DF20F94DCF107CF8BE825
:10EB400092EE62E00F94F5F18BE492EE60E00F94A8
:10EB5000F5F10F94DCF100E010E019C0C8016F2D51
:10EB60000F947FFEFF2031F489E492EE60E00F9471
:10EB7000C2F10BC0F092C6008091C00086FFFCCFAE
:10EB80008091C00080648093C0000F5F1F4FC80158
:10EB900081519F41A0E0B0E0ABBFFC01F790BAE229
:10EBA000FB1621F0E2E000301E07C1F60F94DCF105
:10EBB0000F94DCF187E592EE60E00F94F5F10F948D
:10EBC000DCF1CC24DD2400E010E01EC0C8010F946D
:10EBD00077FEF82E882331F489E492EE60E00F94FA
:10EBE000C2F10BC08093C6008091C00086FFFCCFAD
:10EBF0008091C00080648093C000FE1419F00894D6
:10EC0000C11CD11C0F5F1F4FC80181519F41A0E063
:10EC1000B0E0ABBFFC01E790FAE2EF1621F022E092
:10EC20000030120799F60F94DCF10F94DCF182E6C4
:10EC300092EE60E00F94C2F1C60161E070E00F94C3
:10EC400034F20F94DCF10F94DCF110920202109276
:10EC50000302109204021092050278CE89E992EE26
:10EC600062E00F94F5F1279A2F9A16C02F9880E052
:10EC700090E0E0EDF7E03197F1F7019684369105E9
:10EC8000C1F72F9A80E090E0E0EDF7E03197F1F7DF
:10EC9000019684369105C1F78091C00087FFE6CFC9
:10ECA0008091C00087FFFCCF64C485EA92EE62E0E9
:10ECB0000F94F5F140910202509103026091040219
:10ECC0007091050281E020E10F9491F2809102029F
:10ECD00090910302A0910402B091050280509F4FD1
:10ECE000AF4FBF4F8093020290930302A0930402A0
:10ECF000B093050280509041A040B04008F426CE69
:10ED0000A4CF83EB92EE62E00F94F5F140910602FE
:10ED100050910702609108027091090280E020E1A1
:10ED20000F9491F28091060290910702A09108023F
:10ED3000B091090280509F4FAF4FBF4F80930602A2
:10ED400090930702A0930802B0930902FFCD80ECD4
:10ED500092EE62E00F94F5F183E792EE60E00F949B
:10ED6000F5F18FE792EE60E00F94F5F18BE892EE0B
:10ED700060E00F94F5F189E992EE60E00F94F5F10F
:10ED800085EA92EE60E00F94F5F183EB92EE60E09D
:10ED90000F94F5F180EC92EE60E00F94F5F187ECC2
:10EDA00092EE60E00F94F5F188ED92EE60E00F9442
:10EDB000F5F18FED92EE60E00F94F5F18AEE92EEB0
:10EDC00060E00F94F5F183E093EEBDCD87EC92EE19
:10EDD00062E00F94F5F181E40F947BF282E40F94EA
:10EDE0007BF283E40F947BF284E40F947BF285E45E
:10EDF0000F947BF286E40F947BF287E40F947BF20E
:10EE000088E40F947BF28AE40F947BF28BE40F94F6
:10EE10007BF28CE40F947BF299CD88ED92EE62E068
:10EE20000F94F5F1772473948824992409C48FED05
:10EE300092EE62E00F94F5F140910A0250910B02BC
:10EE400060910C0270910D0282E020E10F9491F22A
:10EE500080910A0290910B02A0910C02B0910D02D8
:10EE600080509F4FAF4FBF4F80930A0290930B0289
:10EE7000A0930C02B0930D0269CD8AEE92EE62E08F
:10EE80000F94F5F184EE90EE60E00F94F5F18FECC5
:10EE900091EE60E00F94F5F1662477244301CC5D98
:10EEA000DE4F19821882C452D140D401C301B695F5
:10EEB000A79597958795CA5DDE4F88839983AA8326
:10EEC000BB83C652D140CC5DDE4FA881B981C4520C
:10EED000D1401196CC5DDE4FB983A883C452D14096
:10EEE000CD0162E070E00F9434F2B0E2B093C6005E
:10EEF0008091C00086FFFCCF8091C0008064809329
:10EF0000C000EDE2E093C6008091C00086FFFCCF18
:10EF10008091C00080648093C000F0E2F093C6004E
:10EF20008091C00086FFFCCF8091C00080648093F8
:10EF3000C000CA5DDE4FE880F9800A811B81C6529D
:10EF4000D140BB27A12F902F8F2D0F940DF2CA5DBA
:10EF5000DE4F8881C652D1400F940DF2B0E2FB2EF5
:10EF6000F092C6008091C00086FFFCCF8091C00067
:10EF700080648093C0000DE30093C6008091C000C0
:10EF800086FFFCCF8091C00080648093C00010E2B7
:10EF90001093C6008091C00086FFFCCF8091C00016
:10EFA00080648093C0008BBEF3012791C65DDE4F65
:10EFB0002883CA52D140A22EBB24CC24DD2408943D
:10EFC000611C711C811C911C8BBEF3018791282E42
:10EFD0003324442455240894611C711C811C911C09
:10EFE0008BBEF3013791C55DDE4F3883CB52D140E4
:10EFF0000894611C711C811C911C8BBEF30147910C
:10F00000C45DDE4F4883CC52D140ADEFEA2EAFEF66
:10F01000FA2EAFEF0A2FAFEF1A2F6E0C7F1C801E57
:10F02000911E142D032DF22CEE24EA0CFB1C0C1D5A
:10F030001D1D0F940DF220E22093C6008091C000A8
:10F0400086FFFCCF8091C00080648093C000C65DC5
:10F05000DE4F8881CA52D1400F940DF230E23093D6
:10F06000C6008091C00086FFFCCF8091C000806404
:10F070008093C000C45DDE4F8881CC52D1400F9494
:10F080000DF240E24093C6008091C00086FFFCCFA5
:10F090008091C00080648093C000C55DDE4F888190
:10F0A000CB52D1400F940DF250E25093C6008091A4
:10F0B000C00086FFFCCF8091C00080648093C000B8
:10F0C0008FEFE8168FEFF80680E0080780E018075A
:10F0D00031F484E092EE60E00F94C2F1DFC0D80119
:10F0E000C7018070907CA070B0708050904CA040A0
:10F0F000B040D1F52FEF3FE340E050E0E222F322B1
:10F1000004231523CA5DDE4FA880B980CA80DB8046
:10F11000C652D140AE0CBF1CC01ED11EAA0CBB1CD7
:10F12000CC1CDD1C8EE092EE60E00F94C2F1BB2798
:10F13000A12F902F8F2D0F940DF28E2D0F940DF285
:10F1400030E23093C6008091C00086FFFCCF8091F2
:10F15000C00080648093C0004EE34093C60080915D
:10F16000C00086FFFCCF87C08EE09EEFA0E0B0E03D
:10F17000E822F9220A231B239CE0E91694E9F90608
:10F1800090E0090790E0190709F088C0C45DDE4FE0
:10F19000A881CC52D140EA2EFF2400E010E0102FCD
:10F1A0000F2DFE2CEE24C55DDE4FB881CB52D14031
:10F1B000EB0EF11C011D111DD601C501817090706F
:10F1C000A070B070DC0199278827E80EF91E0A1F8D
:10F1D0001B1F20EF30E040E050E0A222B322C42207
:10F1E000D52241E1AA0CBB1CCC1CDD1C4A95D1F7F1
:10F1F000EA0CFB1C0C1D1D1D81E090E0A0E0B0E0BE
:10F20000282239224A225B2235E1220C331C441C7D
:10F21000551C3A95D1F7E20CF31C041D151D57013E
:10F220006801AA0CBB1CCC1CDD1C85E192EE60E0E1
:10F230000F94C2F1C801AA27BB270F940DF2BB2778
:10F24000A12F902F8F2D0F940DF28E2D0F940DF274
:10F2500090E29093C6008091C00086FFFCCF809121
:10F26000C00080648093C000AEE3A093C60080918C
:10F27000C00086FFFCCF8091C00080648093C000F6
:10F28000C601AA27BB270F940DF2BB27AD2D9C2DDD
:10F290008B2D0F940DF28A2D0F940DF20F94DCF14B
:10F2A000CC5DDE4FE881F981C452D140F99709F471
:10F2B0004DCBF4E0EF2EF12C012D112D6E0C7F1CA7
:10F2C000801E911EF2CD83E093EE62E00F94F5F183
:10F2D0008AE192EE60E00F94C2F18091C00087FF56
:10F2E000FCCF1091C6001F751093C6008091C0001E
:10F2F00086FFFCCF8091C00080648093C0000F9493
:10F30000DCF1812F81548A3108F036C1163409F4BA
:10F3100095C0173490F4133409F44EC0143430F40B
:10F320001134F1F0123409F01DC130C0143409F465
:10F3300059C0153409F016C16BC01A3409F4C4C0A1
:10F340001B3438F4173409F48FC0183409F00AC19B
:10F35000A1C01B3409F4D2C01C3409F003C1E8C0B9
:10F360008FEF81B90DC082B1809582B980E090E0C5
:10F37000E0EDF7E03197F1F70196883C9105C1F790
:10F380008091C00087FFEFCF12B8EFC08FEF84B934
:10F390000DC085B1809585B980E090E0E0EDF7E0A3
:10F3A0003197F1F70196883C9105C1F78091C00033
:10F3B00087FFEFCF15B8D9C08FEF87B90DC088B1DF
:10F3C000809588B980E090E0E0EDF7E03197F1F7C3
:10F3D0000196883C9105C1F78091C00087FFEFCF6F
:10F3E00018B8C3C08FEF8AB90DC08BB180958BB9A7
:10F3F00080E090E0E0EDF7E03197F1F70196883C8E
:10F400009105C1F78091C00087FFEFCF1BB8ADC059
:10F410008FEF8DB90DC08EB180958EB980E090E0F0
:10F42000E0EDF7E03197F1F70196883C9105C1F7DF
:10F430008091C00087FFEFCF1EB897C08FEF80BBD1
:10F440000DC081B3809581BB80E090E0E0EDF7E0F6
:10F450003197F1F70196883C9105C1F78091C00082
:10F4600087FFEFCF11BA81C08FEF83BB0DC084B38C
:10F47000809584BB80E090E0E0EDF7E03197F1F714
:10F480000196883C9105C1F78091C00087FFEFCFBE
:10F4900014BA6BC08FEF809301010FC080910201FD
:10F4A00080958093020180E090E0E0EDF7E03197F5
:10F4B000F1F70196883C9105C1F78091C00087FF64
:10F4C000EDCF1092020151C08FEF809304010FC065
:10F4D0008091050180958093050180E090E0E0ED4A
:10F4E000F7E03197F1F70196883C9105C1F78091DB
:10F4F000C00087FFEDCF1092050137C08FEF8093DA
:10F5000007010FC08091080180958093080180E079
:10F5100090E0E0EDF7E03197F1F70196883C910536
:10F52000C1F78091C00087FFEDCF109208011DC088
